{
  "_format": "hh-sol-artifact-1",
  "contractName": "MyToken",
  "sourceName": "src/backend/contracts/Token.sol",
  "abi": [
    {
      "inputs": [
        {
          "internalType": "uint256",
          "name": "_price",
          "type": "uint256"
        }
      ],
      "stateMutability": "nonpayable",
      "type": "constructor"
    },
    {
      "anonymous": false,
      "inputs": [
        {
          "indexed": true,
          "internalType": "address",
          "name": "owner",
          "type": "address"
        },
        {
          "indexed": true,
          "internalType": "address",
          "name": "spender",
          "type": "address"
        },
        {
          "indexed": false,
          "internalType": "uint256",
          "name": "value",
          "type": "uint256"
        }
      ],
      "name": "Approval",
      "type": "event"
    },
    {
      "anonymous": false,
      "inputs": [
        {
          "indexed": true,
          "internalType": "address",
          "name": "sub",
          "type": "address"
        },
        {
          "indexed": false,
          "internalType": "uint256",
          "name": "value",
          "type": "uint256"
        }
      ],
      "name": "NewAward",
      "type": "event"
    },
    {
      "anonymous": false,
      "inputs": [
        {
          "indexed": true,
          "internalType": "address",
          "name": "sub",
          "type": "address"
        },
        {
          "indexed": false,
          "internalType": "uint256",
          "name": "value",
          "type": "uint256"
        }
      ],
      "name": "PurchaseTokens",
      "type": "event"
    },
    {
      "anonymous": false,
      "inputs": [
        {
          "indexed": true,
          "internalType": "address",
          "name": "sub",
          "type": "address"
        },
        {
          "indexed": false,
          "internalType": "uint256",
          "name": "value",
          "type": "uint256"
        }
      ],
      "name": "ReturnTokens",
      "type": "event"
    },
    {
      "anonymous": false,
      "inputs": [
        {
          "indexed": true,
          "internalType": "address",
          "name": "from",
          "type": "address"
        },
        {
          "indexed": true,
          "internalType": "address",
          "name": "to",
          "type": "address"
        },
        {
          "indexed": false,
          "internalType": "uint256",
          "name": "value",
          "type": "uint256"
        }
      ],
      "name": "Transfer",
      "type": "event"
    },
    {
      "inputs": [
        {
          "internalType": "address",
          "name": "newSub",
          "type": "address"
        }
      ],
      "name": "addSub",
      "outputs": [],
      "stateMutability": "nonpayable",
      "type": "function"
    },
    {
      "inputs": [
        {
          "internalType": "address",
          "name": "owner",
          "type": "address"
        },
        {
          "internalType": "address",
          "name": "spender",
          "type": "address"
        }
      ],
      "name": "allowance",
      "outputs": [
        {
          "internalType": "uint256",
          "name": "",
          "type": "uint256"
        }
      ],
      "stateMutability": "view",
      "type": "function"
    },
    {
      "inputs": [
        {
          "internalType": "address",
          "name": "spender",
          "type": "address"
        },
        {
          "internalType": "uint256",
          "name": "value",
          "type": "uint256"
        }
      ],
      "name": "approve",
      "outputs": [
        {
          "internalType": "bool",
          "name": "success",
          "type": "bool"
        }
      ],
      "stateMutability": "nonpayable",
      "type": "function"
    },
    {
      "inputs": [
        {
          "internalType": "address",
          "name": "account",
          "type": "address"
        }
      ],
      "name": "balanceOf",
      "outputs": [
        {
          "internalType": "uint256",
          "name": "",
          "type": "uint256"
        }
      ],
      "stateMutability": "view",
      "type": "function"
    },
    {
      "inputs": [
        {
          "internalType": "uint256",
          "name": "amount",
          "type": "uint256"
        }
      ],
      "name": "buyToken",
      "outputs": [],
      "stateMutability": "payable",
      "type": "function"
    },
    {
      "inputs": [
        {
          "internalType": "uint256",
          "name": "value",
          "type": "uint256"
        }
      ],
      "name": "createToken",
      "outputs": [],
      "stateMutability": "nonpayable",
      "type": "function"
    },
    {
      "inputs": [],
      "name": "decimals",
      "outputs": [
        {
          "internalType": "uint8",
          "name": "",
          "type": "uint8"
        }
      ],
      "stateMutability": "view",
      "type": "function"
    },
    {
      "inputs": [
        {
          "internalType": "address",
          "name": "spender",
          "type": "address"
        },
        {
          "internalType": "uint256",
          "name": "subtractedValue",
          "type": "uint256"
        }
      ],
      "name": "decreaseAllowance",
      "outputs": [
        {
          "internalType": "bool",
          "name": "",
          "type": "bool"
        }
      ],
      "stateMutability": "nonpayable",
      "type": "function"
    },
    {
      "inputs": [],
      "name": "getBalanceContractMatic",
      "outputs": [
        {
          "internalType": "uint256",
          "name": "",
          "type": "uint256"
        }
      ],
      "stateMutability": "view",
      "type": "function"
    },
    {
      "inputs": [],
      "name": "getBlanceContract",
      "outputs": [
        {
          "internalType": "uint256",
          "name": "",
          "type": "uint256"
        }
      ],
      "stateMutability": "view",
      "type": "function"
    },
    {
      "inputs": [],
      "name": "getCirculationTokens",
      "outputs": [
        {
          "internalType": "uint256",
          "name": "",
          "type": "uint256"
        }
      ],
      "stateMutability": "view",
      "type": "function"
    },
    {
      "inputs": [
        {
          "internalType": "address",
          "name": "spender",
          "type": "address"
        },
        {
          "internalType": "uint256",
          "name": "addedValue",
          "type": "uint256"
        }
      ],
      "name": "increaseAllowance",
      "outputs": [
        {
          "internalType": "bool",
          "name": "",
          "type": "bool"
        }
      ],
      "stateMutability": "nonpayable",
      "type": "function"
    },
    {
      "inputs": [
        {
          "internalType": "address",
          "name": "",
          "type": "address"
        }
      ],
      "name": "is_sub",
      "outputs": [
        {
          "internalType": "bool",
          "name": "",
          "type": "bool"
        }
      ],
      "stateMutability": "view",
      "type": "function"
    },
    {
      "inputs": [
        {
          "internalType": "address",
          "name": "sub",
          "type": "address"
        },
        {
          "internalType": "uint256",
          "name": "val",
          "type": "uint256"
        }
      ],
      "name": "mintTokenFromSub",
      "outputs": [],
      "stateMutability": "nonpayable",
      "type": "function"
    },
    {
      "inputs": [],
      "name": "name",
      "outputs": [
        {
          "internalType": "string",
          "name": "",
          "type": "string"
        }
      ],
      "stateMutability": "view",
      "type": "function"
    },
    {
      "inputs": [],
      "name": "owner",
      "outputs": [
        {
          "internalType": "address",
          "name": "",
          "type": "address"
        }
      ],
      "stateMutability": "view",
      "type": "function"
    },
    {
      "inputs": [],
      "name": "price",
      "outputs": [
        {
          "internalType": "uint256",
          "name": "",
          "type": "uint256"
        }
      ],
      "stateMutability": "view",
      "type": "function"
    },
    {
      "inputs": [],
      "name": "removeMatic",
      "outputs": [],
      "stateMutability": "nonpayable",
      "type": "function"
    },
    {
      "inputs": [
        {
          "internalType": "uint256",
          "name": "amount",
          "type": "uint256"
        }
      ],
      "name": "returnToken",
      "outputs": [],
      "stateMutability": "nonpayable",
      "type": "function"
    },
    {
      "inputs": [],
      "name": "symbol",
      "outputs": [
        {
          "internalType": "string",
          "name": "",
          "type": "string"
        }
      ],
      "stateMutability": "view",
      "type": "function"
    },
    {
      "inputs": [],
      "name": "totalSupply",
      "outputs": [
        {
          "internalType": "uint256",
          "name": "",
          "type": "uint256"
        }
      ],
      "stateMutability": "view",
      "type": "function"
    },
    {
      "inputs": [
        {
          "internalType": "address",
          "name": "to",
          "type": "address"
        },
        {
          "internalType": "uint256",
          "name": "tokens",
          "type": "uint256"
        }
      ],
      "name": "transfer",
      "outputs": [
        {
          "internalType": "bool",
          "name": "success",
          "type": "bool"
        }
      ],
      "stateMutability": "nonpayable",
      "type": "function"
    },
    {
      "inputs": [
        {
          "internalType": "address",
          "name": "from",
          "type": "address"
        },
        {
          "internalType": "address",
          "name": "to",
          "type": "address"
        },
        {
          "internalType": "uint256",
          "name": "value",
          "type": "uint256"
        }
      ],
      "name": "transferFrom",
      "outputs": [
        {
          "internalType": "bool",
          "name": "success",
          "type": "bool"
        }
      ],
      "stateMutability": "nonpayable",
      "type": "function"
    }
  ],
  "bytecode": "0x60806040523480156200001157600080fd5b50604051620031503803806200315083398181016040528101906200003791906200048f565b6040518060400160405280600f81526020017f43727970746f436f6465724d61747400000000000000000000000000000000008152506040518060400160405280600381526020017f43434d00000000000000000000000000000000000000000000000000000000008152508160039080519060200190620000bb929190620003c8565b508060049080519060200190620000d4929190620003c8565b505050600160058190555033600760006101000a81548173ffffffffffffffffffffffffffffffffffffffff021916908373ffffffffffffffffffffffffffffffffffffffff1602179055506200013c3069d3c229af83a1486400006200023b60201b60201c565b6001600860003073ffffffffffffffffffffffffffffffffffffffff1673ffffffffffffffffffffffffffffffffffffffff16815260200190815260200160002060006101000a81548160ff02191690831515021790555080600681905550600760009054906101000a900473ffffffffffffffffffffffffffffffffffffffff1673ffffffffffffffffffffffffffffffffffffffff16600073ffffffffffffffffffffffffffffffffffffffff167fddf252ad1be2c89b69c2b068fc378daa952ba7f163c4a11628f55a4df523b3ef6200021d620003b460201b60201c565b6040516200022c919062000515565b60405180910390a35062000681565b600073ffffffffffffffffffffffffffffffffffffffff168273ffffffffffffffffffffffffffffffffffffffff161415620002ae576040517f08c379a0000000000000000000000000000000000000000000000000000000008152600401620002a590620004f3565b60405180910390fd5b620002c260008383620003be60201b60201c565b8060026000828254620002d6919062000543565b92505081905550806000808473ffffffffffffffffffffffffffffffffffffffff1673ffffffffffffffffffffffffffffffffffffffff16815260200190815260200160002060008282546200032d919062000543565b925050819055508173ffffffffffffffffffffffffffffffffffffffff16600073ffffffffffffffffffffffffffffffffffffffff167fddf252ad1be2c89b69c2b068fc378daa952ba7f163c4a11628f55a4df523b3ef8360405162000394919062000515565b60405180910390a3620003b060008383620003c360201b60201c565b5050565b6000600254905090565b505050565b505050565b828054620003d690620005aa565b90600052602060002090601f016020900481019282620003fa576000855562000446565b82601f106200041557805160ff191683800117855562000446565b8280016001018555821562000446579182015b828111156200044557825182559160200191906001019062000428565b5b50905062000455919062000459565b5090565b5b80821115620004745760008160009055506001016200045a565b5090565b600081519050620004898162000667565b92915050565b600060208284031215620004a257600080fd5b6000620004b28482850162000478565b91505092915050565b6000620004ca601f8362000532565b9150620004d7826200063e565b602082019050919050565b620004ed81620005a0565b82525050565b600060208201905081810360008301526200050e81620004bb565b9050919050565b60006020820190506200052c6000830184620004e2565b92915050565b600082825260208201905092915050565b60006200055082620005a0565b91506200055d83620005a0565b9250827fffffffffffffffffffffffffffffffffffffffffffffffffffffffffffffffff03821115620005955762000594620005e0565b5b828201905092915050565b6000819050919050565b60006002820490506001821680620005c357607f821691505b60208210811415620005da57620005d96200060f565b5b50919050565b7f4e487b7100000000000000000000000000000000000000000000000000000000600052601160045260246000fd5b7f4e487b7100000000000000000000000000000000000000000000000000000000600052602260045260246000fd5b7f45524332303a206d696e7420746f20746865207a65726f206164647265737300600082015250565b6200067281620005a0565b81146200067e57600080fd5b50565b612abf80620006916000396000f3fe6080604052600436106101405760003560e01c80633d21d722116100b6578063a035b1fe1161006f578063a035b1fe14610451578063a457c2d71461047c578063a9059cbb146104b9578063c485c19a146104f6578063dd62ed3e14610521578063f2ea4d601461055e57610140565b80633d21d722146103555780636178efee1461037e57806367aa312a146103a757806370a08231146103be5780638da5cb5b146103fb57806395d89b411461042657610140565b80632b5c41d5116101085780632b5c41d5146102405780632d296bf11461026b5780632d571cc414610287578063313ce567146102b05780633616189d146102db578063395093511461031857610140565b806306fdde0314610145578063095ea7b3146101705780630b1bdff2146101ad57806318160ddd146101d857806323b872dd14610203575b600080fd5b34801561015157600080fd5b5061015a610587565b6040516101679190612128565b60405180910390f35b34801561017c57600080fd5b5061019760048036038101906101929190611da2565b610619565b6040516101a4919061210d565b60405180910390f35b3480156101b957600080fd5b506101c2610741565b6040516101cf919061238a565b60405180910390f35b3480156101e457600080fd5b506101ed610751565b6040516101fa919061238a565b60405180910390f35b34801561020f57600080fd5b5061022a60048036038101906102259190611d53565b61075b565b604051610237919061210d565b60405180910390f35b34801561024c57600080fd5b5061025561082d565b604051610262919061238a565b60405180910390f35b61028560048036038101906102809190611dde565b610835565b005b34801561029357600080fd5b506102ae60048036038101906102a99190611dde565b610aa6565b005b3480156102bc57600080fd5b506102c5610b65565b6040516102d291906123a5565b60405180910390f35b3480156102e757600080fd5b5061030260048036038101906102fd9190611cee565b610b6e565b60405161030f919061210d565b60405180910390f35b34801561032457600080fd5b5061033f600480360381019061033a9190611da2565b610b8e565b60405161034c919061210d565b60405180910390f35b34801561036157600080fd5b5061037c60048036038101906103779190611cee565b610c38565b005b34801561038a57600080fd5b506103a560048036038101906103a09190611dde565b610d23565b005b3480156103b357600080fd5b506103bc610ed7565b005b3480156103ca57600080fd5b506103e560048036038101906103e09190611cee565b6110af565b6040516103f2919061238a565b60405180910390f35b34801561040757600080fd5b506104106110f7565b60405161041d91906120f2565b60405180910390f35b34801561043257600080fd5b5061043b61111d565b6040516104489190612128565b60405180910390f35b34801561045d57600080fd5b506104666111af565b604051610473919061238a565b60405180910390f35b34801561048857600080fd5b506104a3600480360381019061049e9190611da2565b6111b5565b6040516104b0919061210d565b60405180910390f35b3480156104c557600080fd5b506104e060048036038101906104db9190611da2565b61129f565b6040516104ed919061210d565b60405180910390f35b34801561050257600080fd5b5061050b6114a7565b604051610518919061238a565b60405180910390f35b34801561052d57600080fd5b5061054860048036038101906105439190611d17565b6114c9565b604051610555919061238a565b60405180910390f35b34801561056a57600080fd5b5061058560048036038101906105809190611da2565b611550565b005b60606003805461059690612579565b80601f01602080910402602001604051908101604052809291908181526020018280546105c290612579565b801561060f5780601f106105e45761010080835404028352916020019161060f565b820191906000526020600020905b8154815290600101906020018083116105f257829003601f168201915b5050505050905090565b6000600860008473ffffffffffffffffffffffffffffffffffffffff1673ffffffffffffffffffffffffffffffffffffffff16815260200190815260200160002060009054906101000a900460ff166106a7576040517f08c379a000000000000000000000000000000000000000000000000000000000815260040161069e906122ea565b60405180910390fd5b600073ffffffffffffffffffffffffffffffffffffffff168373ffffffffffffffffffffffffffffffffffffffff161415610717576040517f08c379a000000000000000000000000000000000000000000000000000000000815260040161070e906122ca565b60405180910390fd5b81610721336110af565b101561072c57600080fd5b61073733848461167a565b6001905092915050565b600061074c306110af565b905090565b6000600254905090565b60008033905061076c858285611845565b6107778585856118d1565b600860008573ffffffffffffffffffffffffffffffffffffffff1673ffffffffffffffffffffffffffffffffffffffff16815260200190815260200160002060009054906101000a900460ff16610821576001600860008673ffffffffffffffffffffffffffffffffffffffff1673ffffffffffffffffffffffffffffffffffffffff16815260200190815260200160002060006101000a81548160ff0219169083151502179055505b60019150509392505050565b600047905090565b6002600554141561087b576040517f08c379a00000000000000000000000000000000000000000000000000000000081526004016108729061232a565b60405180910390fd5b60026005819055508061088c610741565b10156108cd576040517f08c379a00000000000000000000000000000000000000000000000000000000081526004016108c49061220a565b60405180910390fd5b6000670de0b6b3a7640000600654836108e69190612463565b6108f09190612432565b905080341015610935576040517f08c379a000000000000000000000000000000000000000000000000000000000815260040161092c9061218a565b60405180910390fd5b6109403033846118d1565b6000813461094e91906124bd565b905060008111156109a1573373ffffffffffffffffffffffffffffffffffffffff166108fc829081150290604051600060405180830381858888f1935050505015801561099f573d6000803e3d6000fd5b505b600860003373ffffffffffffffffffffffffffffffffffffffff1673ffffffffffffffffffffffffffffffffffffffff16815260200190815260200160002060009054906101000a900460ff16610a4b576001600860003373ffffffffffffffffffffffffffffffffffffffff1673ffffffffffffffffffffffffffffffffffffffff16815260200190815260200160002060006101000a81548160ff0219169083151502179055505b3373ffffffffffffffffffffffffffffffffffffffff167f86c2514d52951b8bea7a66b2cdad57969866198009be35f00ccf8001b064ef6684604051610a91919061238a565b60405180910390a25050600160058190555050565b600760009054906101000a900473ffffffffffffffffffffffffffffffffffffffff1673ffffffffffffffffffffffffffffffffffffffff163373ffffffffffffffffffffffffffffffffffffffff1614610b36576040517f08c379a0000000000000000000000000000000000000000000000000000000008152600401610b2d9061222a565b60405180910390fd5b610b62600760009054906101000a900473ffffffffffffffffffffffffffffffffffffffff1682611b52565b50565b60006012905090565b60086020528060005260406000206000915054906101000a900460ff1681565b600080610b99611cb2565b9050610c2d818585600160008673ffffffffffffffffffffffffffffffffffffffff1673ffffffffffffffffffffffffffffffffffffffff16815260200190815260200160002060008973ffffffffffffffffffffffffffffffffffffffff1673ffffffffffffffffffffffffffffffffffffffff16815260200190815260200160002054610c2891906123dc565b61167a565b600191505092915050565b600760009054906101000a900473ffffffffffffffffffffffffffffffffffffffff1673ffffffffffffffffffffffffffffffffffffffff163373ffffffffffffffffffffffffffffffffffffffff1614610cc8576040517f08c379a0000000000000000000000000000000000000000000000000000000008152600401610cbf9061222a565b60405180910390fd5b6001600860008373ffffffffffffffffffffffffffffffffffffffff1673ffffffffffffffffffffffffffffffffffffffff16815260200190815260200160002060006101000a81548160ff02191690831515021790555050565b60026005541415610d69576040517f08c379a0000000000000000000000000000000000000000000000000000000008152600401610d609061232a565b60405180910390fd5b600260058190555080610d7b336110af565b1015610dbc576040517f08c379a0000000000000000000000000000000000000000000000000000000008152600401610db3906122aa565b60405180910390fd5b6000670de0b6b3a764000060065483610dd59190612463565b610ddf9190612432565b905080610dea61082d565b1015610e2b576040517f08c379a0000000000000000000000000000000000000000000000000000000008152600401610e22906121aa565b60405180910390fd5b610e363330846118d1565b3373ffffffffffffffffffffffffffffffffffffffff166108fc829081150290604051600060405180830381858888f19350505050158015610e7c573d6000803e3d6000fd5b503373ffffffffffffffffffffffffffffffffffffffff167fffd5f5f77727ae455ee2a18b7d41acbc31e2743ce9087e9b99f5e3630cb21de083604051610ec3919061238a565b60405180910390a250600160058190555050565b600760009054906101000a900473ffffffffffffffffffffffffffffffffffffffff1673ffffffffffffffffffffffffffffffffffffffff163373ffffffffffffffffffffffffffffffffffffffff1614610f67576040517f08c379a0000000000000000000000000000000000000000000000000000000008152600401610f5e9061222a565b60405180910390fd5b60026005541415610fad576040517f08c379a0000000000000000000000000000000000000000000000000000000008152600401610fa49061232a565b60405180910390fd5b600260058190555060004790506000670de0b6b3a7640000600654610fd06114a7565b610fda9190612463565b610fe49190612432565b905060008183610ff491906124bd565b905060008111611039576040517f08c379a00000000000000000000000000000000000000000000000000000000081526004016110309061226a565b60405180910390fd5b600760009054906101000a900473ffffffffffffffffffffffffffffffffffffffff1673ffffffffffffffffffffffffffffffffffffffff166108fc829081150290604051600060405180830381858888f193505050501580156110a1573d6000803e3d6000fd5b505050506001600581905550565b60008060008373ffffffffffffffffffffffffffffffffffffffff1673ffffffffffffffffffffffffffffffffffffffff168152602001908152602001600020549050919050565b600760009054906101000a900473ffffffffffffffffffffffffffffffffffffffff1681565b60606004805461112c90612579565b80601f016020809104026020016040519081016040528092919081815260200182805461115890612579565b80156111a55780601f1061117a576101008083540402835291602001916111a5565b820191906000526020600020905b81548152906001019060200180831161118857829003601f168201915b5050505050905090565b60065481565b6000806111c0611cb2565b90506000600160008373ffffffffffffffffffffffffffffffffffffffff1673ffffffffffffffffffffffffffffffffffffffff16815260200190815260200160002060008673ffffffffffffffffffffffffffffffffffffffff1673ffffffffffffffffffffffffffffffffffffffff16815260200190815260200160002054905083811015611286576040517f08c379a000000000000000000000000000000000000000000000000000000000815260040161127d9061234a565b60405180910390fd5b611293828686840361167a565b60019250505092915050565b6000600860003373ffffffffffffffffffffffffffffffffffffffff1673ffffffffffffffffffffffffffffffffffffffff16815260200190815260200160002060009054906101000a900460ff1661132d576040517f08c379a00000000000000000000000000000000000000000000000000000000081526004016113249061224a565b60405180910390fd5b600073ffffffffffffffffffffffffffffffffffffffff168373ffffffffffffffffffffffffffffffffffffffff16141561139d576040517f08c379a0000000000000000000000000000000000000000000000000000000008152600401611394906122ca565b60405180910390fd5b816113a7336110af565b10156113e8576040517f08c379a00000000000000000000000000000000000000000000000000000000081526004016113df906121ea565b60405180910390fd5b6113f33384846118d1565b600860008473ffffffffffffffffffffffffffffffffffffffff1673ffffffffffffffffffffffffffffffffffffffff16815260200190815260200160002060009054906101000a900460ff1661149d576001600860008573ffffffffffffffffffffffffffffffffffffffff1673ffffffffffffffffffffffffffffffffffffffff16815260200190815260200160002060006101000a81548160ff0219169083151502179055505b6001905092915050565b60006114b2306110af565b6114ba610751565b6114c491906124bd565b905090565b6000600160008473ffffffffffffffffffffffffffffffffffffffff1673ffffffffffffffffffffffffffffffffffffffff16815260200190815260200160002060008373ffffffffffffffffffffffffffffffffffffffff1673ffffffffffffffffffffffffffffffffffffffff16815260200190815260200160002054905092915050565b600760009054906101000a900473ffffffffffffffffffffffffffffffffffffffff1673ffffffffffffffffffffffffffffffffffffffff163373ffffffffffffffffffffffffffffffffffffffff16146115e0576040517f08c379a00000000000000000000000000000000000000000000000000000000081526004016115d79061222a565b60405180910390fd5b600860008373ffffffffffffffffffffffffffffffffffffffff1673ffffffffffffffffffffffffffffffffffffffff16815260200190815260200160002060009054906101000a900460ff1661166c576040517f08c379a00000000000000000000000000000000000000000000000000000000081526004016116639061228a565b60405180910390fd5b6116768282611b52565b5050565b600073ffffffffffffffffffffffffffffffffffffffff168373ffffffffffffffffffffffffffffffffffffffff1614156116ea576040517f08c379a00000000000000000000000000000000000000000000000000000000081526004016116e19061230a565b60405180910390fd5b600073ffffffffffffffffffffffffffffffffffffffff168273ffffffffffffffffffffffffffffffffffffffff16141561175a576040517f08c379a00000000000000000000000000000000000000000000000000000000081526004016117519061216a565b60405180910390fd5b80600160008573ffffffffffffffffffffffffffffffffffffffff1673ffffffffffffffffffffffffffffffffffffffff16815260200190815260200160002060008473ffffffffffffffffffffffffffffffffffffffff1673ffffffffffffffffffffffffffffffffffffffff168152602001908152602001600020819055508173ffffffffffffffffffffffffffffffffffffffff168373ffffffffffffffffffffffffffffffffffffffff167f8c5be1e5ebec7d5bd14f71427d1e84f3dd0314c0f7b2291e5b200ac8c7c3b92583604051611838919061238a565b60405180910390a3505050565b600061185184846114c9565b90507fffffffffffffffffffffffffffffffffffffffffffffffffffffffffffffffff81146118cb57818110156118bd576040517f08c379a00000000000000000000000000000000000000000000000000000000081526004016118b4906121ca565b60405180910390fd5b6118ca848484840361167a565b5b50505050565b600073ffffffffffffffffffffffffffffffffffffffff168373ffffffffffffffffffffffffffffffffffffffff161415611941576040517f08c379a0000000000000000000000000000000000000000000000000000000008152600401611938906122ca565b60405180910390fd5b600073ffffffffffffffffffffffffffffffffffffffff168273ffffffffffffffffffffffffffffffffffffffff1614156119b1576040517f08c379a00000000000000000000000000000000000000000000000000000000081526004016119a89061214a565b60405180910390fd5b6119bc838383611cba565b60008060008573ffffffffffffffffffffffffffffffffffffffff1673ffffffffffffffffffffffffffffffffffffffff16815260200190815260200160002054905081811015611a42576040517f08c379a0000000000000000000000000000000000000000000000000000000008152600401611a39906121ea565b60405180910390fd5b8181036000808673ffffffffffffffffffffffffffffffffffffffff1673ffffffffffffffffffffffffffffffffffffffff16815260200190815260200160002081905550816000808573ffffffffffffffffffffffffffffffffffffffff1673ffffffffffffffffffffffffffffffffffffffff1681526020019081526020016000206000828254611ad591906123dc565b925050819055508273ffffffffffffffffffffffffffffffffffffffff168473ffffffffffffffffffffffffffffffffffffffff167fddf252ad1be2c89b69c2b068fc378daa952ba7f163c4a11628f55a4df523b3ef84604051611b39919061238a565b60405180910390a3611b4c848484611cbf565b50505050565b600073ffffffffffffffffffffffffffffffffffffffff168273ffffffffffffffffffffffffffffffffffffffff161415611bc2576040517f08c379a0000000000000000000000000000000000000000000000000000000008152600401611bb99061236a565b60405180910390fd5b611bce60008383611cba565b8060026000828254611be091906123dc565b92505081905550806000808473ffffffffffffffffffffffffffffffffffffffff1673ffffffffffffffffffffffffffffffffffffffff1681526020019081526020016000206000828254611c3591906123dc565b925050819055508173ffffffffffffffffffffffffffffffffffffffff16600073ffffffffffffffffffffffffffffffffffffffff167fddf252ad1be2c89b69c2b068fc378daa952ba7f163c4a11628f55a4df523b3ef83604051611c9a919061238a565b60405180910390a3611cae60008383611cbf565b5050565b600033905090565b505050565b505050565b600081359050611cd381612a5b565b92915050565b600081359050611ce881612a72565b92915050565b600060208284031215611d0057600080fd5b6000611d0e84828501611cc4565b91505092915050565b60008060408385031215611d2a57600080fd5b6000611d3885828601611cc4565b9250506020611d4985828601611cc4565b9150509250929050565b600080600060608486031215611d6857600080fd5b6000611d7686828701611cc4565b9350506020611d8786828701611cc4565b9250506040611d9886828701611cd9565b9150509250925092565b60008060408385031215611db557600080fd5b6000611dc385828601611cc4565b9250506020611dd485828601611cd9565b9150509250929050565b600060208284031215611df057600080fd5b6000611dfe84828501611cd9565b91505092915050565b611e10816124f1565b82525050565b611e1f81612503565b82525050565b6000611e30826123c0565b611e3a81856123cb565b9350611e4a818560208601612546565b611e5381612638565b840191505092915050565b6000611e6b6023836123cb565b9150611e7682612649565b604082019050919050565b6000611e8e6022836123cb565b9150611e9982612698565b604082019050919050565b6000611eb16023836123cb565b9150611ebc826126e7565b604082019050919050565b6000611ed46026836123cb565b9150611edf82612736565b604082019050919050565b6000611ef7601d836123cb565b9150611f0282612785565b602082019050919050565b6000611f1a6026836123cb565b9150611f25826127ae565b604082019050919050565b6000611f3d601d836123cb565b9150611f48826127fd565b602082019050919050565b6000611f606015836123cb565b9150611f6b82612826565b602082019050919050565b6000611f836016836123cb565b9150611f8e8261284f565b602082019050919050565b6000611fa66018836123cb565b9150611fb182612878565b602082019050919050565b6000611fc96019836123cb565b9150611fd4826128a1565b602082019050919050565b6000611fec601c836123cb565b9150611ff7826128ca565b602082019050919050565b600061200f6025836123cb565b915061201a826128f3565b604082019050919050565b60006120326019836123cb565b915061203d82612942565b602082019050919050565b60006120556024836123cb565b91506120608261296b565b604082019050919050565b6000612078601f836123cb565b9150612083826129ba565b602082019050919050565b600061209b6025836123cb565b91506120a6826129e3565b604082019050919050565b60006120be601f836123cb565b91506120c982612a32565b602082019050919050565b6120dd8161252f565b82525050565b6120ec81612539565b82525050565b60006020820190506121076000830184611e07565b92915050565b60006020820190506121226000830184611e16565b92915050565b600060208201905081810360008301526121428184611e25565b905092915050565b6000602082019050818103600083015261216381611e5e565b9050919050565b6000602082019050818103600083015261218381611e81565b9050919050565b600060208201905081810360008301526121a381611ea4565b9050919050565b600060208201905081810360008301526121c381611ec7565b9050919050565b600060208201905081810360008301526121e381611eea565b9050919050565b6000602082019050818103600083015261220381611f0d565b9050919050565b6000602082019050818103600083015261222381611f30565b9050919050565b6000602082019050818103600083015261224381611f53565b9050919050565b6000602082019050818103600083015261226381611f76565b9050919050565b6000602082019050818103600083015261228381611f99565b9050919050565b600060208201905081810360008301526122a381611fbc565b9050919050565b600060208201905081810360008301526122c381611fdf565b9050919050565b600060208201905081810360008301526122e381612002565b9050919050565b6000602082019050818103600083015261230381612025565b9050919050565b6000602082019050818103600083015261232381612048565b9050919050565b600060208201905081810360008301526123438161206b565b9050919050565b600060208201905081810360008301526123638161208e565b9050919050565b60006020820190508181036000830152612383816120b1565b9050919050565b600060208201905061239f60008301846120d4565b92915050565b60006020820190506123ba60008301846120e3565b92915050565b600081519050919050565b600082825260208201905092915050565b60006123e78261252f565b91506123f28361252f565b9250827fffffffffffffffffffffffffffffffffffffffffffffffffffffffffffffffff03821115612427576124266125ab565b5b828201905092915050565b600061243d8261252f565b91506124488361252f565b925082612458576124576125da565b5b828204905092915050565b600061246e8261252f565b91506124798361252f565b9250817fffffffffffffffffffffffffffffffffffffffffffffffffffffffffffffffff04831182151516156124b2576124b16125ab565b5b828202905092915050565b60006124c88261252f565b91506124d38361252f565b9250828210156124e6576124e56125ab565b5b828203905092915050565b60006124fc8261250f565b9050919050565b60008115159050919050565b600073ffffffffffffffffffffffffffffffffffffffff82169050919050565b6000819050919050565b600060ff82169050919050565b60005b83811015612564578082015181840152602081019050612549565b83811115612573576000848401525b50505050565b6000600282049050600182168061259157607f821691505b602082108114156125a5576125a4612609565b5b50919050565b7f4e487b7100000000000000000000000000000000000000000000000000000000600052601160045260246000fd5b7f4e487b7100000000000000000000000000000000000000000000000000000000600052601260045260246000fd5b7f4e487b7100000000000000000000000000000000000000000000000000000000600052602260045260246000fd5b6000601f19601f8301169050919050565b7f45524332303a207472616e7366657220746f20746865207a65726f206164647260008201527f6573730000000000000000000000000000000000000000000000000000000000602082015250565b7f45524332303a20617070726f766520746f20746865207a65726f20616464726560008201527f7373000000000000000000000000000000000000000000000000000000000000602082015250565b7f4d6f6e657920796f75206172652073656e64696e67206973206e6f7420656e6f60008201527f7567680000000000000000000000000000000000000000000000000000000000602082015250565b7f536d61727420636f6e747261637420646f6e2774206861766520656e6f75676860008201527f206d6f6e65790000000000000000000000000000000000000000000000000000602082015250565b7f45524332303a20696e73756666696369656e7420616c6c6f77616e6365000000600082015250565b7f45524332303a207472616e7366657220616d6f756e742065786365656473206260008201527f616c616e63650000000000000000000000000000000000000000000000000000602082015250565b7f53686f7020646f6e2774206861766520656e6f75676820746f6b656e73000000600082015250565b7f596f7520617265206e6f7420746865206f776e65720000000000000000000000600082015250565b7f53656e646572206e6565647320746f2062652073756200000000000000000000600082015250565b7f54686572652773206e6f7420656e6f756768204d617469630000000000000000600082015250565b7f41646472657373206973206e6f742066726f6d20612073756200000000000000600082015250565b7f596f7520646f6e2774206861766520656e6f75676820546f6b656e7300000000600082015250565b7f45524332303a207472616e736665722066726f6d20746865207a65726f20616460008201527f6472657373000000000000000000000000000000000000000000000000000000602082015250565b7f5370656e646572206e6565647320746f20626520612073756200000000000000600082015250565b7f45524332303a20617070726f76652066726f6d20746865207a65726f2061646460008201527f7265737300000000000000000000000000000000000000000000000000000000602082015250565b7f5265656e7472616e637947756172643a207265656e7472616e742063616c6c00600082015250565b7f45524332303a2064656372656173656420616c6c6f77616e63652062656c6f7760008201527f207a65726f000000000000000000000000000000000000000000000000000000602082015250565b7f45524332303a206d696e7420746f20746865207a65726f206164647265737300600082015250565b612a64816124f1565b8114612a6f57600080fd5b50565b612a7b8161252f565b8114612a8657600080fd5b5056fea26469706673582212209104f7c62ec867f5543a57cffffb7f34385bca9518c13c04a539571518593ad564736f6c63430008040033",
  "linkReferences": {},
  "deployedLinkReferences": {}
}