{
  "_format": "hh-sol-artifact-1",
  "contractName": "PollingStation",
  "sourceName": "src/backend/contracts/PollingStation.sol",
  "abi": [
    {
      "inputs": [
        {
          "internalType": "address",
          "name": "addr_token",
          "type": "address"
        }
      ],
      "stateMutability": "nonpayable",
      "type": "constructor"
    },
    {
      "anonymous": false,
      "inputs": [
        {
          "indexed": false,
          "internalType": "uint256",
          "name": "id_votation",
          "type": "uint256"
        },
        {
          "indexed": true,
          "internalType": "address",
          "name": "voter",
          "type": "address"
        },
        {
          "indexed": false,
          "internalType": "uint256",
          "name": "option",
          "type": "uint256"
        }
      ],
      "name": "newVote",
      "type": "event"
    },
    {
      "inputs": [],
      "name": "endVotation",
      "outputs": [
        {
          "internalType": "bool",
          "name": "",
          "type": "bool"
        }
      ],
      "stateMutability": "view",
      "type": "function"
    },
    {
      "inputs": [],
      "name": "getVotingEndTime",
      "outputs": [
        {
          "internalType": "uint256",
          "name": "",
          "type": "uint256"
        }
      ],
      "stateMutability": "view",
      "type": "function"
    },
    {
      "inputs": [
        {
          "internalType": "address",
          "name": "",
          "type": "address"
        }
      ],
      "name": "has_voted",
      "outputs": [
        {
          "internalType": "bool",
          "name": "",
          "type": "bool"
        }
      ],
      "stateMutability": "view",
      "type": "function"
    },
    {
      "inputs": [],
      "name": "returnAllOptions",
      "outputs": [
        {
          "internalType": "uint256[]",
          "name": "",
          "type": "uint256[]"
        }
      ],
      "stateMutability": "view",
      "type": "function"
    },
    {
      "inputs": [
        {
          "internalType": "uint256",
          "name": "value",
          "type": "uint256"
        }
      ],
      "name": "setTokenForVote",
      "outputs": [],
      "stateMutability": "nonpayable",
      "type": "function"
    },
    {
      "inputs": [
        {
          "internalType": "uint256",
          "name": "_max_index",
          "type": "uint256"
        },
        {
          "internalType": "uint256",
          "name": "_endVotation",
          "type": "uint256"
        },
        {
          "internalType": "uint256",
          "name": "idVotation",
          "type": "uint256"
        }
      ],
      "name": "setVotation",
      "outputs": [],
      "stateMutability": "nonpayable",
      "type": "function"
    },
    {
      "inputs": [],
      "name": "tokens_for_vote",
      "outputs": [
        {
          "internalType": "uint256",
          "name": "",
          "type": "uint256"
        }
      ],
      "stateMutability": "view",
      "type": "function"
    },
    {
      "inputs": [
        {
          "internalType": "uint256",
          "name": "option",
          "type": "uint256"
        }
      ],
      "name": "viewResults",
      "outputs": [
        {
          "internalType": "uint256",
          "name": "",
          "type": "uint256"
        }
      ],
      "stateMutability": "view",
      "type": "function"
    },
    {
      "inputs": [
        {
          "internalType": "uint256",
          "name": "option",
          "type": "uint256"
        }
      ],
      "name": "vote",
      "outputs": [],
      "stateMutability": "nonpayable",
      "type": "function"
    },
    {
      "inputs": [
        {
          "internalType": "uint256",
          "name": "",
          "type": "uint256"
        }
      ],
      "name": "voters",
      "outputs": [
        {
          "internalType": "address",
          "name": "",
          "type": "address"
        }
      ],
      "stateMutability": "view",
      "type": "function"
    },
    {
      "inputs": [],
      "name": "votingEndTime",
      "outputs": [
        {
          "internalType": "uint256",
          "name": "",
          "type": "uint256"
        }
      ],
      "stateMutability": "view",
      "type": "function"
    }
  ],
  "bytecode": "0x60806040523480156200001157600080fd5b5060405162001d3538038062001d35833981810160405281019062000037919062000309565b600160008190555033600160006101000a81548173ffffffffffffffffffffffffffffffffffffffff021916908373ffffffffffffffffffffffffffffffffffffffff16021790555080600260006101000a81548173ffffffffffffffffffffffffffffffffffffffff021916908373ffffffffffffffffffffffffffffffffffffffff16021790555080600460006101000a81548173ffffffffffffffffffffffffffffffffffffffff021916908373ffffffffffffffffffffffffffffffffffffffff16021790555060016006819055506004600781905550600460009054906101000a900473ffffffffffffffffffffffffffffffffffffffff1673ffffffffffffffffffffffffffffffffffffffff1663313ce5676040518163ffffffff1660e01b815260040160206040518083038186803b1580156200017b57600080fd5b505afa15801562000190573d6000803e3d6000fd5b505050506040513d601f19601f82011682018060405250810190620001b6919062000335565b600a620001c49190620003bc565b6001620001d29190620004f9565b60098190555060075467ffffffffffffffff8111156200021b577f4e487b7100000000000000000000000000000000000000000000000000000000600052604160045260246000fd5b6040519080825280602002602001820160405280156200024a5781602001602082028036833780820191505090505b5060059080519060200190620002629291906200026a565b505062000615565b828054828255906000526020600020908101928215620002a9579160200282015b82811115620002a85782518255916020019190600101906200028b565b5b509050620002b89190620002bc565b5090565b5b80821115620002d7576000816000905550600101620002bd565b5090565b600081519050620002ec81620005e1565b92915050565b6000815190506200030381620005fb565b92915050565b6000602082840312156200031c57600080fd5b60006200032c84828501620002db565b91505092915050565b6000602082840312156200034857600080fd5b60006200035884828501620002f2565b91505092915050565b6000808291508390505b6001851115620003b3578086048111156200038b576200038a620005a5565b5b60018516156200039b5780820291505b8081029050620003ab85620005d4565b94506200036b565b94509492505050565b6000620003c9826200058e565b9150620003d68362000598565b9250620004057fffffffffffffffffffffffffffffffffffffffffffffffffffffffffffffffff84846200040d565b905092915050565b6000826200041f5760019050620004f2565b816200042f5760009050620004f2565b8160018114620004485760028114620004535762000489565b6001915050620004f2565b60ff841115620004685762000467620005a5565b5b8360020a915084821115620004825762000481620005a5565b5b50620004f2565b5060208310610133831016604e8410600b8410161715620004c35782820a905083811115620004bd57620004bc620005a5565b5b620004f2565b620004d2848484600162000361565b92509050818404811115620004ec57620004eb620005a5565b5b81810290505b9392505050565b600062000506826200058e565b915062000513836200058e565b9250817fffffffffffffffffffffffffffffffffffffffffffffffffffffffffffffffff04831182151516156200054f576200054e620005a5565b5b828202905092915050565b600062000567826200056e565b9050919050565b600073ffffffffffffffffffffffffffffffffffffffff82169050919050565b6000819050919050565b600060ff82169050919050565b7f4e487b7100000000000000000000000000000000000000000000000000000000600052601160045260246000fd5b60008160011c9050919050565b620005ec816200055a565b8114620005f857600080fd5b50565b620006068162000598565b81146200061257600080fd5b50565b61171080620006256000396000f3fe608060405234801561001057600080fd5b50600436106100a95760003560e01c80633df0b2b1116100715780633df0b2b11461015257806370656d5714610170578063b1bf87b01461018e578063d10c504f146101ac578063da58c7d9146101dc578063de3cdb991461020c576100a9565b80630121b93f146100ae5780631ea736e0146100ca5780632ba034db146100e85780632bd87d49146101065780633922b3c014610136575b600080fd5b6100c860048036038101906100c39190610d99565b610228565b005b6100d26106f0565b6040516100df91906111a2565b60405180910390f35b6100f06106f6565b6040516100fd91906110a7565b60405180910390f35b610120600480360381019061011b9190610d99565b610702565b60405161012d91906111a2565b60405180910390f35b610150600480360381019061014b9190610d99565b6107b0565b005b61015a610900565b6040516101679190611085565b60405180910390f35b610178610958565b60405161018591906111a2565b60405180910390f35b61019661095e565b6040516101a391906111a2565b60405180910390f35b6101c660048036038101906101c19190610d47565b610968565b6040516101d391906110a7565b60405180910390f35b6101f660048036038101906101f19190610d99565b610988565b604051610203919061100a565b60405180910390f35b61022660048036038101906102219190610deb565b6109c7565b005b600a54421115801561023d57506000600a5414155b61027c576040517f08c379a000000000000000000000000000000000000000000000000000000000815260040161027390611142565b60405180910390fd5b600260005414156102c2576040517f08c379a00000000000000000000000000000000000000000000000000000000081526004016102b990611182565b60405180910390fd5b600260008190555060065481101580156102de57506007548111155b61031d576040517f08c379a0000000000000000000000000000000000000000000000000000000008152600401610314906110e2565b60405180910390fd5b600b60003373ffffffffffffffffffffffffffffffffffffffff1673ffffffffffffffffffffffffffffffffffffffff16815260200190815260200160002060009054906101000a900460ff16156103aa576040517f08c379a00000000000000000000000000000000000000000000000000000000081526004016103a190611122565b60405180910390fd5b600954600460009054906101000a900473ffffffffffffffffffffffffffffffffffffffff1673ffffffffffffffffffffffffffffffffffffffff1663dd62ed3e33306040518363ffffffff1660e01b815260040161040a929190611025565b60206040518083038186803b15801561042257600080fd5b505afa158015610436573d6000803e3d6000fd5b505050506040513d601f19601f8201168201806040525081019061045a9190610dc2565b101561049b576040517f08c379a000000000000000000000000000000000000000000000000000000000815260040161049290611162565b60405180910390fd5b600460009054906101000a900473ffffffffffffffffffffffffffffffffffffffff1673ffffffffffffffffffffffffffffffffffffffff166323b872dd33600260009054906101000a900473ffffffffffffffffffffffffffffffffffffffff166009546040518463ffffffff1660e01b815260040161051e9392919061104e565b602060405180830381600087803b15801561053857600080fd5b505af115801561054c573d6000803e3d6000fd5b505050506040513d601f19601f820116820180604052508101906105709190610d70565b506005600654826105819190611451565b815481106105b8577f4e487b7100000000000000000000000000000000000000000000000000000000600052603260045260246000fd5b9060005260206000200160008154809291906105d3906114da565b91905055506003339080600181540180825580915050600190039060005260206000200160009091909190916101000a81548173ffffffffffffffffffffffffffffffffffffffff021916908373ffffffffffffffffffffffffffffffffffffffff1602179055506001600b60003373ffffffffffffffffffffffffffffffffffffffff1673ffffffffffffffffffffffffffffffffffffffff16815260200190815260200160002060006101000a81548160ff0219169083151502179055503373ffffffffffffffffffffffffffffffffffffffff167fe51e99c42a2cf3f049eeb6e47872eddc0fc5c6d37c0b0f0ca1534fabd4b34c8f600854836040516106dd9291906111bd565b60405180910390a2600160008190555050565b600a5481565b6000600a544211905090565b6000600654821015801561071857506007548211155b610757576040517f08c379a000000000000000000000000000000000000000000000000000000000815260040161074e906110c2565b60405180910390fd5b6005600654836107679190611451565b8154811061079e577f4e487b7100000000000000000000000000000000000000000000000000000000600052603260045260246000fd5b90600052602060002001549050919050565b600160009054906101000a900473ffffffffffffffffffffffffffffffffffffffff1673ffffffffffffffffffffffffffffffffffffffff163373ffffffffffffffffffffffffffffffffffffffff1614610840576040517f08c379a000000000000000000000000000000000000000000000000000000000815260040161083790611102565b60405180910390fd5b600460009054906101000a900473ffffffffffffffffffffffffffffffffffffffff1673ffffffffffffffffffffffffffffffffffffffff1663313ce5676040518163ffffffff1660e01b815260040160206040518083038186803b1580156108a857600080fd5b505afa1580156108bc573d6000803e3d6000fd5b505050506040513d601f19601f820116820180604052508101906108e09190610e3a565b600a6108ec91906112d9565b816108f791906113f7565b60098190555050565b6060600580548060200260200160405190810160405280929190818152602001828054801561094e57602002820191906000526020600020905b81548152602001906001019080831161093a575b5050505050905090565b60095481565b6000600a54905090565b600b6020528060005260406000206000915054906101000a900460ff1681565b6003818154811061099857600080fd5b906000526020600020016000915054906101000a900473ffffffffffffffffffffffffffffffffffffffff1681565b600160009054906101000a900473ffffffffffffffffffffffffffffffffffffffff1673ffffffffffffffffffffffffffffffffffffffff163373ffffffffffffffffffffffffffffffffffffffff1614610a57576040517f08c379a0000000000000000000000000000000000000000000000000000000008152600401610a4e90611102565b60405180910390fd5b60026000541415610a9d576040517f08c379a0000000000000000000000000000000000000000000000000000000008152600401610a9490611182565b60405180910390fd5b60026000819055508260078190555060075467ffffffffffffffff811115610aee577f4e487b7100000000000000000000000000000000000000000000000000000000600052604160045260246000fd5b604051908082528060200260200182016040528015610b1c5781602001602082028036833780820191505090505b5060059080519060200190610b32929190610c53565b5060005b600380549050811015610c12576000600b600060038481548110610b83577f4e487b7100000000000000000000000000000000000000000000000000000000600052603260045260246000fd5b9060005260206000200160009054906101000a900473ffffffffffffffffffffffffffffffffffffffff1673ffffffffffffffffffffffffffffffffffffffff1673ffffffffffffffffffffffffffffffffffffffff16815260200190815260200160002060006101000a81548160ff0219169083151502179055508080610c0a906114da565b915050610b36565b50603c82610c2091906113f7565b42610c2b9190611230565b600a8190555060036000610c3f9190610ca0565b806008819055506001600081905550505050565b828054828255906000526020600020908101928215610c8f579160200282015b82811115610c8e578251825591602001919060010190610c73565b5b509050610c9c9190610cc1565b5090565b5080546000825590600052602060002090810190610cbe9190610cc1565b50565b5b80821115610cda576000816000905550600101610cc2565b5090565b600081359050610ced8161167e565b92915050565b600081519050610d0281611695565b92915050565b600081359050610d17816116ac565b92915050565b600081519050610d2c816116ac565b92915050565b600081519050610d41816116c3565b92915050565b600060208284031215610d5957600080fd5b6000610d6784828501610cde565b91505092915050565b600060208284031215610d8257600080fd5b6000610d9084828501610cf3565b91505092915050565b600060208284031215610dab57600080fd5b6000610db984828501610d08565b91505092915050565b600060208284031215610dd457600080fd5b6000610de284828501610d1d565b91505092915050565b600080600060608486031215610e0057600080fd5b6000610e0e86828701610d08565b9350506020610e1f86828701610d08565b9250506040610e3086828701610d08565b9150509250925092565b600060208284031215610e4c57600080fd5b6000610e5a84828501610d32565b91505092915050565b6000610e6f8383610fec565b60208301905092915050565b610e8481611485565b82525050565b6000610e95826111f6565b610e9f818561120e565b9350610eaa836111e6565b8060005b83811015610edb578151610ec28882610e63565b9750610ecd83611201565b925050600181019050610eae565b5085935050505092915050565b610ef181611497565b82525050565b6000610f04600e8361121f565b9150610f0f8261155f565b602082019050919050565b6000610f27600e8361121f565b9150610f3282611588565b602082019050919050565b6000610f4a60158361121f565b9150610f55826115b1565b602082019050919050565b6000610f6d60168361121f565b9150610f78826115da565b602082019050919050565b6000610f9060108361121f565b9150610f9b82611603565b602082019050919050565b6000610fb3601c8361121f565b9150610fbe8261162c565b602082019050919050565b6000610fd6601f8361121f565b9150610fe182611655565b602082019050919050565b610ff5816114c3565b82525050565b611004816114c3565b82525050565b600060208201905061101f6000830184610e7b565b92915050565b600060408201905061103a6000830185610e7b565b6110476020830184610e7b565b9392505050565b60006060820190506110636000830186610e7b565b6110706020830185610e7b565b61107d6040830184610ffb565b949350505050565b6000602082019050818103600083015261109f8184610e8a565b905092915050565b60006020820190506110bc6000830184610ee8565b92915050565b600060208201905081810360008301526110db81610ef7565b9050919050565b600060208201905081810360008301526110fb81610f1a565b9050919050565b6000602082019050818103600083015261111b81610f3d565b9050919050565b6000602082019050818103600083015261113b81610f60565b9050919050565b6000602082019050818103600083015261115b81610f83565b9050919050565b6000602082019050818103600083015261117b81610fa6565b9050919050565b6000602082019050818103600083015261119b81610fc9565b9050919050565b60006020820190506111b76000830184610ffb565b92915050565b60006040820190506111d26000830185610ffb565b6111df6020830184610ffb565b9392505050565b6000819050602082019050919050565b600081519050919050565b6000602082019050919050565b600082825260208201905092915050565b600082825260208201905092915050565b600061123b826114c3565b9150611246836114c3565b9250827fffffffffffffffffffffffffffffffffffffffffffffffffffffffffffffffff0382111561127b5761127a611523565b5b828201905092915050565b6000808291508390505b60018511156112d0578086048111156112ac576112ab611523565b5b60018516156112bb5780820291505b80810290506112c985611552565b9450611290565b94509492505050565b60006112e4826114c3565b91506112ef836114cd565b925061131c7fffffffffffffffffffffffffffffffffffffffffffffffffffffffffffffffff8484611324565b905092915050565b60008261133457600190506113f0565b8161134257600090506113f0565b8160018114611358576002811461136257611391565b60019150506113f0565b60ff84111561137457611373611523565b5b8360020a91508482111561138b5761138a611523565b5b506113f0565b5060208310610133831016604e8410600b84101617156113c65782820a9050838111156113c1576113c0611523565b5b6113f0565b6113d38484846001611286565b925090508184048111156113ea576113e9611523565b5b81810290505b9392505050565b6000611402826114c3565b915061140d836114c3565b9250817fffffffffffffffffffffffffffffffffffffffffffffffffffffffffffffffff048311821515161561144657611445611523565b5b828202905092915050565b600061145c826114c3565b9150611467836114c3565b92508282101561147a57611479611523565b5b828203905092915050565b6000611490826114a3565b9050919050565b60008115159050919050565b600073ffffffffffffffffffffffffffffffffffffffff82169050919050565b6000819050919050565b600060ff82169050919050565b60006114e5826114c3565b91507fffffffffffffffffffffffffffffffffffffffffffffffffffffffffffffffff82141561151857611517611523565b5b600182019050919050565b7f4e487b7100000000000000000000000000000000000000000000000000000000600052601160045260246000fd5b60008160011c9050919050565b7f496e76616c6964204f7074696f6e000000000000000000000000000000000000600082015250565b7f496e76616c6964206f7074696f6e000000000000000000000000000000000000600082015250565b7f596f7520617265206e6f7420746865206f776e65720000000000000000000000600082015250565b7f596f75206a7573742063616e20766f7465206f6e636500000000000000000000600082015250565b7f566f74696e672068617320656e64656400000000000000000000000000000000600082015250565b7f596f7520646f6e2774206861766520656e6f75676820746f6b656e7300000000600082015250565b7f5265656e7472616e637947756172643a207265656e7472616e742063616c6c00600082015250565b61168781611485565b811461169257600080fd5b50565b61169e81611497565b81146116a957600080fd5b50565b6116b5816114c3565b81146116c057600080fd5b50565b6116cc816114cd565b81146116d757600080fd5b5056fea2646970667358221220f5a4301ec89d7a35646f52841bc6dc7cf0ccefd36c896267471ebae28a70332b64736f6c63430008040033",
  "linkReferences": {},
  "deployedLinkReferences": {}
}